:020000040800F2
:10000000C006002055020008D5120008791100082A
:10001000D11200084D040008E5140008000000009B
:10002000000000000000000000000000DD120008D9
:100030005104000800000000D9120008E112000875
:100040006F0200086F0200086F0200086F020008CC
:100050006F0200086F0200086F0200086F020008BC
:100060006F0200086F0200086F0200086F020008AC
:100070006F0200086F0200086F0200086F0200089C
:100080006F0200086F0200086F0200086F0200088C
:100090006F0200086F0200086F0200086F0200087C
:1000A0006F0200086F0200086F0200086F0200086C
:1000B0006F0200086F0200086F0200086F0200085C
:1000C0006F0200086F0200086F0200086F0200084C
:1000D0006F0200086F0200086F0200086F0200083C
:1000E0006F0200086F0200086F0200086F0200082C
:1000F0006F0200086F0200086F0200086F0200081C
:100100006F0200086F0200086F0200086F0200080B
:100110006F0200086F0200086F0200086F020008FB
:100120006F0200086F0200086F0200086F020008EB
:100130006F0200086F0200086F0200086F020008DB
:100140006F0200086F0200086F0200086F020008CB
:100150006F0200086F0200086F0200086F020008BB
:100160006F0200086F0200086F0200086F020008AB
:100170006F0200086F0200086F0200080000000014
:100180006F0200086F02000800F002F800F052F859
:1001900014A696E8000CB244B344DA4501D100F04D
:1001A00049F8BAE80F000FA696E83000A5EB040561
:1001B00004EB0607AAEB0704A7F101074FEA1515A0
:1001C0004FEA3414A4F10104AC4201D300F032F838
:1001D00013F0010F18BFFB1A43F0010300F001F800
:1001E000DBE718475813000078130000103A24BFCB
:1001F00078C878C1FAD8520724BF30C830C144BF8C
:1002000004680C6070470000704700000023002461
:1002100000250026103A28BF78C1FBD8520728BF16
:1002200030C148BF0B6070471FB501F072F91FBDA8
:1002300010B510BD00F0D0F81146FFF7F5FF01F042
:1002400053F900F0EEF803B4FFF7F2FF03BC00F03F
:10025000F5F800000948804709480047FEE7FEE737
:10026000FEE7FEE7FEE7FEE7FEE7FEE7FEE7FEE766
:1002700004480549054A064B704700008D130008E5
:1002800089010008C0000020C0060020C002002034
:10029000C002002053EA020C00F069802DE9F04B07
:1002A0004FF00006002B1FBFB3FA83F503FA05F4E5
:1002B00024FA05F65E4012BF1643B2FA82F502FA3E
:1002C00005F4C5F120051EBF22FA05FC44EA0C0422
:1002D000203556EA044C4FEA144418BF641C4FF012
:1002E00000084FF00009904271EB030C39D300294C
:1002F00019BFB1FA81F701FA07F6B0FA80F700FAF0
:1003000007F6C7F120071EBF20FA07FC46EA0C06D5
:100310002037B6FBF4FCA7EB0507103F07F01F0BD7
:10032000CBF120062CFA06F60CFA0BFB44BFB346C1
:100330000026202FA4BF5E464FF0000B5BEA060CA0
:1003400008BF4FF0010B19EB0B0948EB0608ABFB9C
:10035000027C06FB02CC0BFB03CCC01B71EB0C0137
:10036000C1E70B46024641464846BDE8F08B13B54F
:10037000084318BF4FF0FF300146AFF30080BDE8DF
:100380001C4070474FF0000200B513469446964655
:10039000203922BFA0E80C50A0E80C50B1F1200198
:1003A000BFF4F7AF090728BFA0E80C5048BF0CC046
:1003B0005DF804EB890028BF40F8042B08BF7047A4
:1003C00048BF20F8022B11F0804F18BF00F8012B16
:1003D0007047704770477047754600F02BF8AE467F
:1003E00005006946534620F00700854618B020B541
:1003F000FFF73EFFBDE820404FF000064FF000073A
:100400004FF000084FF0000BAC46ACE8C009ACE878
:10041000C009ACE8C009ACE8C00921F007018D466D
:10042000704710B50446AFF300802046BDE8104089
:10043000FFF709BF0048704710000020014918204D
:10044000ABBEFEE72600020070470000FEE700009A
:100450007047000072B600BFFEE700002DE9F04FC4
:1004600083B000F1200200F13E4741F600450092C2
:1004700007F1FF77C4F2020508224FEAB726A84227
:1004800008BF072200254FF000084FF00009072E93
:1004900038BF4FEAB72201920AE000BF09F1010913
:1004A00008F10208B9F1100F05F1040500F0A2806F
:1004B0000F68012202FA09FE17EA0E0AEED0D1F8FF
:1004C00004C003220CF003077E1E02FA08F4012E7A
:1004D0006FEA040B12D88468CE6804EA0B0406FAAB
:1004E00008F634438460446824EA0E06CCF3001412
:1004F00004FA09F42643466004E000BF032F01D14B
:1005000003271EE0C6688C6806EA0B0604FA08F4A6
:100510002643022FC66014D16FF00302009E02EA48
:10052000590756F807C005F01C040F220B69A240BA
:100530002CEA0202A3401A43F251D1F804C00CF095
:100540000307026807FA08F302EA0B021A431CF4D5
:10055000403F0260A2D0002243F644030292C4F25C
:1005600002031A6843F6004442F480421A601A6893
:10057000C4F2010402F480420292029A29F00302BA
:100580004FF6084C2244CFF6FF7C52F80C3005F0B1
:100590000C070F26BE40B343019E06FA07F73B4304
:1005A00042F80C30A2684B6842EA0A0743F60C4C4A
:1005B000DE0258BF22EA0A07A760C4F2010CDCF889
:1005C00000209E0242EA0A0758BF22EA0A07CCF836
:1005D000007062689E0342EA0A0758BF22EA0A07CF
:1005E00067602268DB0342EA0A0758BF22EA0A076B
:1005F000276053E703B0BDE8F08F000040F2B80079
:10060000C2F200000068704740F2000040F2B801FA
:10061000C2F20000C2F2000100780A6810440860CB
:100620007047000080B543F60040C4F20200016844
:1006300041F400710160016841F48061016001686A
:1006400041F480710160032000F074F80F2000F085
:1006500005F800F027F8002080BD000070B540F2DA
:100660000006C2F2000640F208013278C2F2000130
:100670004FF47A730968B3FBF2F20446B1FBF2F16E
:10068000084600F025FB0F2C4FF0010508D838B9BB
:100690004FF0FF3021460022002500F01FF8746063
:1006A000284670BD82B0002043F640010190C4F29C
:1006B00002014A6842F480424A604A6802F4804279
:1006C0000192019A0090086840F080500860086824
:1006D00000F080500090009802B0704710B54EF6C0
:1006E0000C5CCEF2000CDCF80030C3F3022E8EF06E
:1006F0000704042C28BF0424BEF103034FF0FF3E7F
:100700000EFA04F438BF0023A14399400EFA03F314
:100710009A43114300F00F0200F160430901043ACB
:1007200003F564436244002848BF02F10C031970CA
:1007300010BD00004EF60C51CEF200010A684FF6D3
:10074000FF031A4060F30A2242F0806040F0FD701F
:1007500008607047002804BF012070472DE9F04170
:1007600043F60808C4F202080446D8F8F8030D4618
:1007700000F00700884207D288F8F853D8F8F80349
:1007800000F00700A84277D12068810717D54107FC
:1007900005D5D8F8001041F4E051C8F80010010761
:1007A00005D5D8F8001041F46041C8F80010D8F819
:1007B0000010A26821F0F0011143C8F80010C00732
:1007C00040D1D8F8F80300F00700A84207D988F80C
:1007D000F853D8F8F80300F00700A8424CD120687D
:1007E000410707D5D8F80010E26821F4E051114321
:1007F000C8F80010000708D5D8F80000216920F4D7
:10080000604040EAC100C8F8000000F055F8D8F890
:10081000001041F22C52C1F30311C0F60002515CEA
:1008200040F2080220FA01F140F20400C2F2000096
:100830000068C2F200021160FFF710FF0020BDE85F
:10084000F08100BF6068811E022907D258F8081C99
:1008500089015CBF0120BDE8F08111E0012807D1CA
:1008600058F8081C89035CBF0120BDE8F08107E04F
:1008700058F8081C890703D40120BDE8F08100BFA7
:10088000D8F8001021F003010843C8F80000FFF772
:10089000B5FE064641F28837D8F80000616800F0DE
:1008A0000C00B0EB810F8CD0FFF7A8FE801BB84284
:1008B000F2D90320BDE8F08110B543F60404C4F278
:1008C0000204606800F00C0142F200400829C0F206
:1008D000F40007D0042918BF10BD41F20020C0F277
:1008E0007A0010BD216801F03F02216823684902A7
:1008F000C3F3881106D4A1FB00010023FFF7CAFC53
:1009000007E000BF41F20020C0F27A004843B0FB8C
:10091000F2F021680222C1F3014102EB4101B0FB78
:10092000F1F010BD002804BF012070472DE9F0410F
:1009300082B00446007843F60006C007C4F20206FF
:100940000CD0B06800F00C00042840F081803068C2
:10095000800303D56068002800F068812078800754
:100960001BD5B06810F00C0F09D0B06800F00C0077
:10097000082840F087807068400200F1838030686A
:10098000800703D5E068012840F050813068216974
:1009900020F0F80040EAC10030602078000713D44E
:1009A000207840072AD4A569002D00F03A81B0686C
:1009B00000F00C00082840F0A580012D40F00E81C9
:1009C000012002B0BDE8F0816069002800F082805B
:1009D0000020C4F247200121C0F8801EFFF70EFE60
:1009E000054600BF706F8007DAD4FFF707FE401B93
:1009F0000228F7D9032002B0BDE8F081306C5FEA2D
:100A0000C0080AD400200190306C40F0805030645F
:100A1000306C00F080500190019847F20007C4F25A
:100A200000073868C00547D4386840F480703860E3
:100A3000FFF7E4FD054600BF3868C0053CD4FFF76A
:100A4000DDFD401B0228F7D9032002B0BDE8F0818C
:100A5000B06800F00C00082803D1706840023FF530
:100A600076AF61683068B1F5803F07D0B1F5A02F4F
:100A700040F09A8040F480203060306840F480304C
:100A800030609AE0E068002840F20000C4F247209D
:100A90005CD001210160FFF7B1FD05463068800799
:100AA0003FF574AFFFF7AAFD401B0228F6D90320DB
:100AB00002B0BDE8F08100BFA168306F012905D008
:100AC000052955D140F004003067306F40F0010037
:100AD000306756E00020C4F247200021C0F8801E95
:100AE000FFF78CFD054600BF706F80077FF558AF9C
:100AF000FFF784FD401B0228F6D9032002B0BDE8B1
:100B0000F08100BF0027C4F2472700203866FFF7B6
:100B100075FD022D05460DD13068800140F18A80B7
:100B2000FFF76CFD401B02284FF00300F4D902B020
:100B3000BDE8F0813068800173D5FFF75FFD401B91
:100B400002284FF00300F5D9F1E700BF0021016052
:100B5000FFF754FD054600BF306880077FF51DAFE5
:100B6000FFF74CFD401B02284FF00300F4D9DEE7ED
:100B700020F001003067306F002920F0040030675A
:100B80007AD0FFF73BFD054641F28837306F80078A
:100B900000F18480FFF732FD401BB842F6D90320F4
:100BA00002B0BDE8F08100BF20F4803030603068D2
:100BB000002920F4802030607AD0FFF71FFD054621
:100BC000306880033FF5CAAEFFF718FD401B64286C
:100BD000F6D9032002B0BDE8F08100BF7068E1697A
:100BE00000F480028A4221D1216A00F03F028A4249
:100BF0001CD147F6C071626A0140B1EB821F15D16A
:100C0000A16A4FF6FF73C903994300F44032A1F57E
:100C100080318A420AD1E16A00F07060B0EB016F66
:100C200004D1002002B0BDE8F08100BF012002B075
:100C3000BDE8F08104F11C052FCD084340EA821085
:100C4000D9034FF6FF729143A1F5803140EA056068
:100C50000843706001203866FFF7D0FC044600BFEF
:100C600030688001DDD4FFF7C9FC001B02284FF07B
:100C70000300F5D95BE700BFFFF7C0FC054641F272
:100C8000883700BF306F800708D5FFF7B7FC401BDF
:100C9000B8424FF00300F5D949E700BFB8F1000FA3
:100CA0003FF581AE306C20F0805030647BE600BFB1
:100CB000FFF7A4FC054600BF306880037FF54EAE09
:100CC000FFF79CFC401B64284FF00300F4D92EE78B
:100CD000411E0020B0EB116F1CBF012070474EF287
:100CE0001002CEF2000251604EF62351CEF2000106
:100CF000F0230B70072190601160704790F83C2042
:100D0000012A4FF0020254D010B580F83D2002684D
:100D1000D2F804E0D2F808C00C682EF07003234328
:100D200041F2FF74C4F20004A24253600EDC40F2B0
:100D3000FF73C4F200039A4216DCB2F1804F2BD04D
:100D400040F20043C4F2000324E000BF40F2FF334E
:100D5000C4F201039A4213DC41F60003C4F200031B
:100D60009A4219D0002313E040F60003C4F20003B6
:100D70009A4211D040F60043C4F200030AE000BFDB
:100D800044F20003C4F201039A4205D040F200434A
:100D9000C4F201039A4204D149682CF0800319433C
:100DA00091600121002280F83D1080F83C20BDE8D0
:100DB000104010467047000090F83C30012B04BFF3
:100DC000022070474FEAB202032A00F2FF802DE9A9
:100DD000F043DFE802F003B13F7F00BF036840F259
:100DE00000461C6A1A6A24F0020422F001021A6208
:100DF0001A46D3F804C052F818EF8F6843F48065A0
:100E0000C4F20106B54244EA070405D1CF6824F0D4
:100E10000C0427F004073C430F68B54206D1D1E922
:100E200005582CF440762E4346EA080C2EF0730643
:100E30003743C3F804C09F614F6809695F631C6250
:100E40009F6947F008079F619F6927F004079F612A
:100E5000B1E000BF036840F200481C6A1A6A24F43B
:100E6000007422F480721A621A46D3F804C052F851
:100E70001CEF8F6843F48065C4F20108454544EADD
:100E8000072408D1CF6840F2FF463F0224F44064B3
:100E900027EA06063443D1F80090454506D1D1E94A
:100EA00005562CF440572E4347EA061C2EF07307D4
:100EB00047EA0907C3F804C0DF614F680969DF63C7
:100EC0001C62DF6947F00807DF61DF6927F004076C
:100ED000DF6170E0036840F20045D3F820C01A6A71
:100EE00043F4806722F480521A621A465C6852F812
:100EF0001C8FD1F800E08E68C4F20105AF4204D126
:100F00004D6924F4804444EA85142CF4005747EAE0
:100F1000063728F4E64646EA0E265C60DE614E6837
:100F200009691E641F62DF6947F40067DF61DF69DA
:100F300027F48067DF613DE0036840F200481C6AE7
:100F40001A6A24F0200422F010021A621A46D3F81A
:100F500004C052F818EF8F6843F48065C4F20108AA
:100F6000454544EA071407D1CF686FF0400624F0E6
:100F7000C00406EA07163443D1F80090454506D16F
:100F8000D1E905562CF440672E4347EA860C2EF42F
:100F9000E64747EA0927C3F804C09F614F6809691B
:100FA0009F631C629F6947F400679F619F6927F4F4
:100FB00080679F6109021368194311600021BDE831
:100FC000F043002280F83C200846704701210022AF
:100FD00080F83C2008467047002804BF0120704775
:100FE00010B5044690F83D0028B9002084F83C0074
:100FF000204600F01FF8022084F83D002068211DE3
:1010000000F0CEF9012084F8460084F83E0084F810
:101010003F0084F8400084F8410084F8420084F8DE
:10102000430084F8440084F8450084F83D00002023
:1010300010BD0000006840F60041C4F20001884283
:1010400018BF704781B00020009043F64000C4F202
:101050000200016841F008010160006800F008002A
:101060000090009801B07047C1B1042908D0082948
:1010700014BF41224022825C012A05D016E000BF45
:101080003F22825C012A11D10222082910D00429B2
:1010900014BF80F8412080F83F200BE090F83E20FC
:1010A000012A03D1022280F83E2003E0012070478C
:1010B00080F84020006801F01F010122036A02FA53
:1010C00001F123EA01020262026A114341F2FF7256
:1010D000C4F20002904201620CDC40F2FF71C4F2E3
:1010E0000001884214DCB0F1804F37D040F200415B
:1010F00016E000BF40F2FF31C4F20101884215DC66
:1011000041F60001C4F20001884227D0002115E019
:1011100040F60001C4F2000188421FD040F60041B1
:10112000C4F20001884219D01FE000BF44F2000160
:10113000C4F20101884211D040F20041C4F2010121
:10114000884212D1416C40F2004340F48062C4F204
:10115000010341F400419A42416406D1816801F0E3
:101160000701062904BF00207047016841F0010112
:101170000160002070470000FEE7000080B586B0E7
:10118000002043F630010590CDE90300CDE90100D0
:101190000090C4F202010A6842F010020A600A6874
:1011A00002F010020092009A00900A6842F0800259
:1011B0000A600A6802F080020092009A00900A68B1
:1011C00042F001020A60096801F0010100910099F2
:1011D0001821CDE901100120039041F20000C4F272
:1011E000020001A9FFF73AF906B080BDB0B590B092
:1011F00040F6004540F27000C4F200050021C2F242
:101200000000532244F61F63CDE90811CDE9061111
:10121000CDE90411C0E90052C0E902130161816106
:10122000FFF7DAFE002818BFFFF714F940F270004C
:10123000C2F2000008A9FFF761FD002818BFFFF700
:1012400009F9602001900020CDE90200059040F2EC
:101250007000C2F2000001A90022FFF7ADFD0028D6
:1012600018BFFFF7F7F840F27004C2F2000401A9BA
:1012700020460422FFF7A0FD002818BFFFF7EAF878
:1012800021680020A9420F90CDE90D000C900B9031
:1012900002D010B0B0BD00BF43F630010A90C4F2D6
:1012A00002010A6842F001020A60096801F00101C6
:1012B0000A910A9903210B910221CDE90C10CDE985
:1012C0000E0105F5FA300BA9FFF7C8F810B0B0BD54
:1012D000FEE70000FEE700007047000070470000D6
:1012E000FFF792B970B592B006AC20463021FFF7F7
:1012F00049F8002543F640000595CDE90355CDE9B1
:1013000001550095C4F202000168022641F08051A7
:101310000160006800F080500090009847F20000E3
:101320000095C4F20000016841F48041016000684A
:10133000A82100F4804000900098012006904FF40E
:10134000803007904FF480000D9004200E90119093
:1013500020460C96CDE90F16FFF7E4FA10B172B6ED
:10136000FEE700BF0F20CDE901064FF4A050049026
:101370004FF48050059001A805210395FFF7EAF985
:1013800010B172B6FEE700BF12B070BD4EF68850C5
:10139000CEF20000016841F4700101607047000066
:1013A00010B540F6FF3E0368C4F2000E40F2004C58
:1013B0007045C4F2010C25DCB0F1804F2FD040F213
:1013C0000042C4F20002904229D040F60002C4F26A
:1013D0000002904223D041F6FF72C4F20002904214
:1013E00027DC70453ADCB0F1804F5BD040F2004220
:1013F000C4F20002904255D040F60002C4F200024E
:101400004EE000BF40F60042C4F20002904206D017
:10141000604504D00022C4F201029042DBD14A6848
:1014200023F07003134341F6FF72C4F200029042AE
:10143000D7DD43F6FF72C4F20102904220DC42F293
:101440000002C4F2000290422CD00022C4F2010239
:10145000904227D0604525D028E000BF40F60042EA
:10146000C4F2000290421DD041F60002C4F2000214
:10147000904217D041F60042C4F2000210E000BFD3
:1014800044F20002C4F2010290420BD044F6000282
:10149000C4F20102904205D044F20042C4F20102BB
:1014A000904203D1CA6823F44073134323F08002AF
:1014B0004B69D1F800E08C681A430260C46240F4C2
:1014C0008062C0F828E0624504BF09690163012118
:1014D00041610169C90708BF10BD016921F001011F
:1014E000016110BDFEE70000FFF79CF8FFF7FAFE70
:1014F000FFF744FEFFF77AFE40F27004C2F20004E8
:1015000020460021FFF7B0FD20460421FFF7ACFD87
:10151000FEE7F1EE100A4FF6FF71C0F2C03120EA8B
:10152000010040F04070E1EE100A7047000000003A
:101530000000000001020304060708096015000806
:101540000000002010000000EC01000870150008E9
:1015500010000020B00600000C020008000000008F
:1015600001000000100000000024F4000000000052
:040000050800018965
:00000001FF
