:020000040800F2
:10000000C006002055020008691B0008ED19000811
:10001000651B00084D040008A52200080000000030
:10002000000000000000000000000000DD1B0008D0
:100030005104000800000000D91B00086D1C0008D6
:100040006F0200086F0200086F0200086F020008CC
:100050006F0200086F0200086F0200086F020008BC
:100060006F02000855040008610400086F020008D0
:100070006F0200086F0200086F0200086F0200089C
:100080006F0200086F0200086F0200086F0200088C
:100090006F0200086F0200086F0200086F0200087C
:1000A0006F0200086F0200086F0200086F0200086C
:1000B0006F0200086F0200086F0200086F0200085C
:1000C0006F0200086F0200086F0200086F0200084C
:1000D0006F0200086F0200086F0200086F0200083C
:1000E0006F0200086F0200086F0200086F0200082C
:1000F0006F0200086F0200086F0200086F0200081C
:100100006F0200086F0200086F0200086F0200080B
:100110006F0200086F0200086F0200086F020008FB
:100120006F0200086F0200086F0200086F020008EB
:100130006F0200086F0200086F0200086F020008DB
:100140006F0200086F0200086F0200086F020008CB
:100150006F0200086F0200086F0200086F020008BB
:100160006F0200086F0200086F0200086F020008AB
:100170006F0200086F0200086F0200080000000014
:100180006F0200086F02000800F002F800F052F859
:1001900014A696E8000CB244B344DA4501D100F04D
:1001A00049F8BAE80F000FA696E83000A5EB040561
:1001B00004EB0607AAEB0704A7F101074FEA1515A0
:1001C0004FEA3414A4F10104AC4201D300F032F838
:1001D00013F0010F18BFFB1A43F0010300F001F800
:1001E000DBE718474022000060220000103A24BFDD
:1001F00078C878C1FAD8520724BF30C830C144BF8C
:1002000004680C6070470000704700000023002461
:1002100000250026103A28BF78C1FBD8520728BF16
:1002200030C148BF0B6070471FB502F0E5F81FBD35
:1002300010B510BD00F0D0F81146FFF7F5FF02F041
:1002400093F800F0EEF803B4FFF7F2FF03BC00F000
:10025000F5F800000948804709480047FEE7FEE737
:10026000FEE7FEE7FEE7FEE7FEE7FEE7FEE7FEE766
:1002700004480549054A064B70470000311D000837
:1002800089010008C0000020C0060020C002002034
:10029000C002002053EA020C00F069802DE9F04B07
:1002A0004FF00006002B1FBFB3FA83F503FA05F4E5
:1002B00024FA05F65E4012BF1643B2FA82F502FA3E
:1002C00005F4C5F120051EBF22FA05FC44EA0C0422
:1002D000203556EA044C4FEA144418BF641C4FF012
:1002E00000084FF00009904271EB030C39D300294C
:1002F00019BFB1FA81F701FA07F6B0FA80F700FAF0
:1003000007F6C7F120071EBF20FA07FC46EA0C06D5
:100310002037B6FBF4FCA7EB0507103F07F01F0BD7
:10032000CBF120062CFA06F60CFA0BFB44BFB346C1
:100330000026202FA4BF5E464FF0000B5BEA060CA0
:1003400008BF4FF0010B19EB0B0948EB0608ABFB9C
:10035000027C06FB02CC0BFB03CCC01B71EB0C0137
:10036000C1E70B46024641464846BDE8F08B13B54F
:10037000084318BF4FF0FF300146AFF30080BDE8DF
:100380001C4070474FF0000200B513469446964655
:10039000203922BFA0E80C50A0E80C50B1F1200198
:1003A000BFF4F7AF090728BFA0E80C5048BF0CC046
:1003B0005DF804EB890028BF40F8042B08BF7047A4
:1003C00048BF20F8022B11F0804F18BF00F8012B16
:1003D0007047704770477047754600F02BF8AE467F
:1003E00005006946534620F00700854618B020B541
:1003F000FFF73EFFBDE820404FF000064FF000073A
:100400004FF000084FF0000BAC46ACE8C009ACE878
:10041000C009ACE8C009ACE8C00921F007018D466D
:10042000704710B50446AFF300802046BDE8104089
:10043000FFF709BF0048704710000020014918204D
:10044000ABBEFEE72600020070470000FFE7FEE7B4
:100450007047000080B5082000F04CF880BD000017
:1004600080B5102000F046F880BD000072B6FFE7AE
:10047000FEE7000080B584B0039000F033FA0290EC
:10048000039801900198013048B1FFE740F208005D
:10049000C2F200000178019808440190FFE7FFE7ED
:1004A00000F020FA0299401A0199884201D2FFE730
:1004B000F6E704B080BD000081B0ADF80200BDF8E1
:1004C0000200082807D1FFE740F20001C2F2000154
:1004D00001200870FFE7BDF80200102807D1FFE7F0
:1004E00040F20001C2F2000100200870FFE701B0F5
:1004F0007047000080B582B0ADF8060043F61440A6
:10050000C4F201000068BDF8061008420CD0FFE7F5
:10051000BDF8060043F61441C4F201010860BDF8BD
:100520000600FFF7C9FFFFE702B080BD8EB00D9057
:100530000C9100200A90099008900B90FFE70B980F
:100540000F2800F2CC81FFE70B99012088400A9028
:100550000C9800680A990840099009980A998842FD
:1005600040F0B881FFE70C98406800F003000128D4
:1005700007D0FFE70C98406800F0030002282FD155
:10058000FFE70D98806808900B984100032000FA5F
:1005900001F10898884308900C98C0680B994900AD
:1005A00000FA01F108980843089008980D998860AE
:1005B0000D98406808900B99012000FA01F1089805
:1005C000884308900C984068C0F300100B9900FA1B
:1005D00001F108980843089008980D994860FFE7D2
:1005E0000C98406800F00300032818D0FFE70D982E
:1005F000C06808900B984100032000FA01F10898A8
:10060000884308900C9880680B99490000FA01F122
:1006100008980843089008980D99C860FFE70C985F
:10062000406800F00300022826D1FFE70D980B99DF
:100630006FF0030202EA51010844006A08900B9827
:1006400000F0070081000F2000FA01F108988843AC
:1006500008900C9800690B9901F00701890000FAD5
:1006600001F108980843089008980D990B9B02EA3D
:10067000530211440862FFE70D98006808900B9838
:100680004100032000FA01F10898884308900C9873
:10069000406800F003000B99490000FA01F1089846
:1006A0000843089008980D9908600C988079800795
:1006B000002800F00E81FFE7FFE70020079043F6D7
:1006C0004400C4F20200016841F480410160006806
:1006D00000F4804007900798FFE70B9820F0030094
:1006E00043F60801C4F20101405808900B9800F04D
:1006F000030081000F2000FA01F108988843089058
:100700000D980021C4F20201884203D1FFE70020C6
:1007100006905EE00D9840F20041C4F2020188426A
:1007200003D1FFE70120059050E00D9840F600014D
:10073000C4F20201884203D1FFE70220049042E0A4
:100740000D9840F60041C4F20201884203D1FFE750
:100750000320039034E00D9841F20001C4F202013D
:10076000884203D1FFE70420029026E00D9841F271
:100770000041C4F20201884203D1FFE70520019045
:1007800018E00D9841F60001C4F20201884203D13D
:10079000FFE7062000900AE00D9941F60042C4F2FE
:1007A00002020820914208BF07200090FFE700984E
:1007B0000190FFE701980290FFE702980390FFE79E
:1007C00003980490FFE704980590FFE705980690CA
:1007D000FFE70698C0B20B9901F00301890000FA07
:1007E00001F108980843089008980B9921F003013B
:1007F00043F60802C4F20102885043F60840C4F2EE
:1008000001000068089009990898884308900C989E
:100810008079C006002805D5FFE7099908980843A4
:100820000890FFE7089843F60841C4F20101086008
:1008300043F60C40C4F2010000680890099908983A
:10084000884308900C9880798006002805D5FFE73A
:100850000999089808430890FFE7089843F60C4167
:10086000C4F20101086043F60440C4F201000068CC
:10087000089009990898884308900C988079800717
:10088000002805D5FFE70999089808430890FFE775
:10089000089843F60441C4F20101086043F60040A1
:1008A000C4F20100006808900999089888430890EC
:1008B0000C988079C00728B1FFE709990898084388
:1008C0000890FFE7089843F60041C4F20101086070
:1008D000FFE7FFE7FFE70B9801300B902FE60EB024
:1008E0007047000040F2B800C2F200000068704794
:1008F00040F20800C2F20000027840F2B801C2F2F1
:1009000000010868104408607047000080B543F695
:100910000041C4F20201086840F4007008600868F1
:1009200040F480600860086840F48070086003202C
:1009300000F08AF80F2000F005F800F03BF80020E6
:1009400080BD000080B582B0009040F20400C2F289
:100950000000006840F20801C2F200010A784FF47A
:100960007A71B1FBF2F1B0FBF1F000F07BFD20B148
:10097000FFE701208DF8070018E000980F280DD838
:10098000FFE700994FF0FF30002200F043F8009895
:1009900040F20C01C2F20001086003E001208DF872
:1009A000070003E000208DF80700FFE79DF807002F
:1009B00002B080BD82B0FFE70020019043F6440002
:1009C000C4F20200016841F480410160006800F453
:1009D000804001900198FFE7FFE70020009043F678
:1009E0004000C4F20200016841F0805101600068DB
:1009F00000F0805000900098FFE702B070470000C0
:100A000080B582B08DF807009DF9070001F04CFC1D
:100A100002B080BD80B586B08DF8170004910392B6
:100A20000020029001F058FC02909DF917000190FF
:100A300002980499039A01F099F80146019801F08F
:100A400053FC06B080BD000080B582B001900198D3
:100A500001F06CFC02B080BD80B584B002900191C1
:100A6000029820B9FFE701208DF80F0021E10198DD
:100A700043F60041C4F20201096801F0070188420F
:100A800012D9FFE7019943F60040C4F20200017059
:100A9000006800F007000199884204D0FFE70120B8
:100AA0008DF80F0005E1FFE7029800788007002825
:100AB0002AD5FFE7029800784007002809D5FFE70C
:100AC00043F60801C4F20201086840F4E0500860EF
:100AD000FFE7029800780007002809D5FFE743F6F2
:100AE0000801C4F20201086840F460400860FFE7B2
:100AF00043F60801C4F20201086820F0F000029AEF
:100B0000926810430860FFE702980078C007002849
:100B10006ED0FFE702984068012811D1FFE743F645
:100B20000000C4F20200006800F400310020B0EBC5
:100B3000514F04D1FFE701208DF80F00B9E02CE000
:100B400002984068022805D0FFE702984068032811
:100B500011D1FFE743F60000C4F20200006800F084
:100B600000710020B0EB516F04D1FFE701208DF838
:100B70000F009EE010E043F60000C4F2020000689F
:100B800000F002010020B0EB510F04D1FFE701207B
:100B90008DF80F008DE0FFE7FFE743F60801C4F290
:100BA0000201086820F00300029A526810430860AE
:100BB000FFF798FE0090FFE743F60800C4F202003A
:100BC000006800F00C0002994968B0EB810F0ED06C
:100BD000FFE7FFF787FE0099401A41F2893188420A
:100BE00004D3FFE703208DF80F0062E0E4E7FFE79E
:100BF000019843F60041C4F20201096801F00701BF
:100C0000884212D2FFE7019943F60040C4F2020085
:100C10000170006800F007000199884204D0FFE7E6
:100C200001208DF80F0044E0FFE7029800784007AC
:100C300000280CD5FFE743F60801C4F2020108685A
:100C400020F4E050029AD26810430860FFE702984F
:100C50000078000700280DD5FFE743F60801C4F22D
:100C60000201086820F46040029A126940EAC2005A
:100C70000860FFE700F022F843F60801C4F2020121
:100C80000968C9B20A0942F21241C0F60001895C42
:100C9000C84040F20401C2F20001086040F20C00BA
:100CA000C2F200000068FFF74DFE00208DF80F0033
:100CB000FFE79DF80F0004B080BD000080B586B04E
:100CC0000020059004900390029043F60800C4F2BF
:100CD0000200006800F00C000146019140B1FFE7FE
:100CE000019804280AD0FFE7019808280CD04FE0AB
:100CF00042F20040C0F2F40002904FE041F20020C6
:100D0000C0F27A00029049E043F60400C4F2020007
:100D1000016801F03F01059100684002002813D5E9
:100D2000FFE743F60400C4F202000068C0F3881035
:100D300041F20021C0F27A01A0FB0101059A0023D3
:100D4000FFF7A8FA049012E043F60400C4F2020090
:100D50000068C0F3881042F20041C0F2F401A0FB29
:100D60000101059A0023FFF795FA0490FFE743F687
:100D70000400C4F20200006800F44031022000EBDD
:100D8000D130039004980399B0FBF1F0029005E094
:100D900042F20040C0F2F4000290FFE7029806B071
:100DA00080BD000080B586B00490049820B9FFE7AC
:100DB00001208DF8170050E304980078C007002840
:100DC00000F0A580FFE743F60800C4F202000068C7
:100DD00000F00C00042813D0FFE743F60800C4F22B
:100DE0000200006800F00C0008281ED1FFE743F65F
:100DF0000400C4F2020000684002002815D5FFE795
:100E000043F60000C4F20200006800F40031002044
:100E1000B0EB514F08D0FFE70498406820B9FFE7D6
:100E200001208DF8170018E370E0FFE70498406890
:100E3000B0F5803F09D1FFE743F60001C4F202019B
:100E4000086840F48030086020E004984068B0F5FD
:100E5000A02F0DD1FFE743F60001C4F2020108689C
:100E600040F480200860086840F4803008600CE09E
:100E700043F60001C4F20201086820F480300860E3
:100E8000086820F480200860FFE7FFE7FFE7049888
:100E90004068E8B1FFE7FFF725FD0390FFE743F661
:100EA0000000C4F20200006800F400310020B0EB42
:100EB000514F0CD1FFE7FFF715FD0399401A652844
:100EC00004D3FFE703208DF81700C6E2E7E71CE034
:100ED000FFF708FD0390FFE743F60000C4F20200AD
:100EE000006800F400310020B0EB514F0CD0FFE758
:100EF000FFF7F8FC0399401A652804D3FFE70320A5
:100F00008DF81700A9E2E7E7FFE7FFE7FFE704989E
:100F100000788007002840F19680FFE743F608003C
:100F2000C4F20200006810F00C0F13D0FFE743F684
:100F30000800C4F20200006800F00C0008282CD160
:100F4000FFE743F60400C4F20200006840020028F4
:100F500023D4FFE743F60000C4F20200006800F06B
:100F600002010020B0EB510F09D0FFE70498C068E0
:100F7000012804D0FFE701208DF817006DE243F649
:100F80000001C4F20201086820F0F800049A126916
:100F900040EAC2000860FFE754E00498C06870B3FC
:100FA000FFE70021C4F2472101200860FFF79AFC07
:100FB0000390FFE743F60000C4F20200006800F06F
:100FC00002010020B0EB510F0CD1FFE7FFF78AFCC4
:100FD0000399401A032804D3FFE703208DF8170074
:100FE0003BE2E7E743F60001C4F20201086820F0A3
:100FF000F800049A126940EAC200086021E000216A
:10100000C4F2472100200860FFF76CFC0390FFE763
:1010100043F60000C4F20200006800F00201002064
:10102000B0EB510F0CD0FFE7FFF75CFC0399401ABF
:10103000032804D3FFE703208DF817000DE2E7E74C
:10104000FFE7FFE7FFE704980078000700284BD58B
:10105000FFE70498406918B3FFE740F68061C4F2E7
:10106000472101200860FFF73DFC0390FFE743F6AE
:101070007400C4F20200006800F002010020B0EB2E
:10108000510F0CD1FFE7FFF72DFC0399401A0328FD
:1010900004D3FFE703208DF81700DEE1E7E722E045
:1010A00040F68061C4F2472100200860FFF71AFC77
:1010B0000390FFE743F67400C4F20200006800F0FA
:1010C00002010020B0EB510F0CD0FFE7FFF70AFC44
:1010D0000399401A032804D3FFE703208DF8170073
:1010E000BBE1E7E7FFE7FFE7049800784007002847
:1010F00040F1CE80FFE700208DF8070043F6400066
:10110000C4F202000068C000002815D4FFE7FFE722
:101110000020009043F64000C4F20200016841F054
:1011200080510160006800F0805000900098FFE757
:1011300001208DF80700FFE747F20000C4F200002D
:101140000068C005002822D4FFE747F20001C4F27E
:101150000001086840F480700860FFF7C3FB03904B
:10116000FFE747F20000C4F200000068C005002855
:101170000CD4FFE7FFF7B6FB0399401A032804D30A
:10118000FFE703208DF8170067E1EAE7FFE7FFE7D5
:1011900004988068012809D1FFE743F67001C4F282
:1011A0000201086840F0010008601FE004988068B0
:1011B00005280DD1FFE743F67001C4F2020108686B
:1011C00040F004000860086840F0010008600CE08E
:1011D00043F67001C4F20201086820F001000860C3
:1011E000086820F004000860FFE7FFE7FFE70498C5
:1011F0008068F8B1FFE7FFF775FB0390FFE743F660
:101200007000C4F20200006800F002010020B0EBA0
:10121000510F0ED1FFE7FFF765FB0399401A41F22A
:101220008931884204D3FFE703208DF8170014E1C9
:10123000E5E71EE0FFF756FB0390FFE743F670007B
:10124000C4F20200006800F002010020B0EB510F70
:101250000ED0FFE7FFF746FB0399401A41F28931B0
:10126000884204D3FFE703208DF81700F5E0E5E797
:10127000FFE79DF80700012809D1FFE743F6400189
:10128000C4F20201086820F080500860FFE7FFE721
:1012900004988069002800F0DC80FFE743F608002E
:1012A000C4F20200006800F00C00082800F08580FD
:1012B000FFE70498806902285CD1FFE76021C4F24F
:1012C000472100200860FFF70DFB0390FFE743F67E
:1012D0000000C4F20200006800F000710020B0EBD2
:1012E000516F0CD0FFE7FFF7FDFA0399401A03286E
:1012F00004D3FFE703208DF81700AEE0E7E7049979
:10130000C869D1F820C04B6A8A6A40EA0C0040EAFA
:101310008310D2034FF6FF739A43A2F58032104335
:10132000C96A40EA016043F60401C4F202010860A0
:101330006021C4F2472101200860FFF7D3FA03902F
:10134000FFE743F60000C4F20200006800F00071FD
:101350000020B0EB516F0CD1FFE7FFF7C3FA039900
:10136000401A032804D3FFE703208DF8170074E028
:10137000E7E721E06021C4F2472100200860FFF781
:10138000B1FA0390FFE743F60000C4F202000068E0
:1013900000F000710020B0EB516F0CD0FFE7FFF7B9
:1013A000A1FA0399401A032804D3FFE703208DF81C
:1013B000170052E0E7E7FFE74AE004988069012858
:1013C00004D1FFE701208DF8170046E043F6040042
:1013D000C4F202000068029004988069012831D0AC
:1013E000FFE7029800F480000499C969884229D176
:1013F000FFE7029800F03F000499096A884221D172
:10140000FFE7029847F6C07108400499496AB0EBBB
:10141000811F17D1FFE7029800F440300499896AD0
:10142000C9034FF6FF729143A1F58031884209D17B
:10143000FFE7029800F070600499C96AB0EB016F91
:1014400004D0FFE701208DF8170006E0FFE7FFE773
:10145000FFE700208DF81700FFE79DF8170006B0A2
:1014600080BD000080B582B00190019800F0D4FBEF
:1014700002B080BD85B003900291FFE7039890F819
:101480003C00012804D1FFE702208DF813007EE024
:101490000399012081F83C00FFE7FFE70399022050
:1014A00081F83D0003980068406801900398006847
:1014B00080680090019820F0700001900298016807
:1014C00001980843019001980399096848600398BE
:1014D00000680021C4F2010188423CD0FFE7039874
:1014E0000068B0F1804F36D0FFE70398006840F203
:1014F0000041C4F2000188422DD0FFE70398006844
:1015000040F60001C4F20001884224D0FFE70398AE
:10151000006840F60041C4F2000188421BD0FFE79A
:101520000398006840F20041C4F20101884212D0E1
:10153000FFE70398006844F20001C4F20101884209
:1015400009D0FFE70398006841F60001C4F20001EA
:1015500088420ED1FFE7009820F0800000900298AA
:1015600041680098084300900098039909688860D2
:10157000FFE70399012081F83D00FFE70399002070
:1015800081F83C00FFE700208DF81300FFE79DF88D
:10159000130005B07047000080B588B007900020A8
:1015A000069005900490039002900798006840F61A
:1015B0000041C4F20001884220D1FFE7FFE700208C
:1015C000019043F63000C4F20200016841F00101CD
:1015D0000160006800F0010001900198FFE703201E
:1015E00002900220039004900021059106900020B3
:1015F000C4F2020002A9FEF799FFFFE708B080BD20
:1016000080B586B004900391029200208DF8070007
:10161000FFE7049890F83C00012804D1FFE702207E
:101620008DF8170089E00499012081F83C00FFE75C
:10163000FFE7029800900C2800F270800099DFE824
:1016400001F0076D6D6D206D6D6D3A6D6D6D530020
:1016500004980068039900F069FC0498016888699F
:1016600040F00800886104980168886920F004004F
:101670008861039802690498016888691043886149
:1016800050E004980068039900F0C6FC04980168D3
:10169000886940F40060886104980168886920F4D2
:1016A000806088610398026904980168886940EA4B
:1016B0000220886136E004980068039900F026FD56
:1016C00004980168C86940F00800C861049801687E
:1016D000C86920F00400C861039802690498016891
:1016E000C8691043C8611DE004980068039900F0C0
:1016F00087FD04980168C86940F40060C8610498D7
:101700000168C86920F48060C86103980269049880
:101710000168C86940EA0220C86103E001208DF831
:101720000700FFE7FFE70499002081F83C00FFE78E
:101730009DF807008DF81700FFE79DF8170006B029
:1017400080BD000080B582B00090009820B9FFE70E
:1017500001208DF807003FE0009890F83D0040B967
:10176000FFE70099002081F83C00009800F038F86D
:10177000FFE70099022081F83D00009951F8040B21
:1017800000F0E0FA0099012081F84600FFE7009997
:10179000012081F83E00009981F83F00009981F80E
:1017A0004000009981F84100FFE7FFE70099012020
:1017B00081F84200009981F84300009981F84400C3
:1017C000009981F84500FFE70099012081F83D006C
:1017D00000208DF80700FFE79DF8070002B080BDEC
:1017E00082B001900198006840F60041C4F2000107
:1017F000884212D1FFE7FFE70020009043F6400047
:10180000C4F20200016841F008010160006800F0C4
:10181000080000900098FFE7FFE702B07047000063
:1018200080B58CB00A900991099828B9FFE70A9809
:1018300090F83E0007901CE00998042805D1FFE7C6
:101840000A9890F83F00069010E00998082805D102
:10185000FFE70A9890F84000059004E00A9890F895
:1018600041000590FFE705980690FFE7069807906E
:10187000FFE70798012804D0FFE701208DF82F002B
:10188000AFE0099828B9FFE70A99022081F83E00E5
:101890001EE00998042806D1FFE70A99022081F882
:1018A0003F00049012E00998082806D1FFE70A9942
:1018B000022081F84000039005E00A99022081F897
:1018C00041000390FFE703980490FFE70498FFE7C7
:1018D0000A98006809990122019200F00BFB019817
:1018E0000A9909680022C4F20102914202900CD0C8
:1018F000FFE70A9800684FF60041CBF6FE710844F6
:10190000B0FA80F040090290FFE70298C00738B1B2
:10191000FFE70A980168486C40F400404864FFE71C
:101920000A9800680021C4F2010188423CD0FFE718
:101930000A980068B0F1804F36D0FFE70A98006837
:1019400040F20041C4F2000188422DD0FFE70A981E
:10195000006840F60001C4F20001884224D0FFE78D
:101960000A98006840F60041C4F2000188421BD08A
:10197000FFE70A98006840F20041C4F20101884282
:1019800012D0FFE70A98006844F20001C4F2010196
:10199000884209D0FFE70A98006841F60001C4F2C6
:1019A0000001884212D1FFE70A980068806800F0C1
:1019B000070008900898062807D0FFE70A980168F2
:1019C000086840F001000860FFE706E00A98016837
:1019D000086840F001000860FFE700208DF82F0044
:1019E000FFE79DF82F000CB080BD0000FFE7FEE789
:1019F00080B58CB000200B900A9009900890079059
:101A0000FFE70020069043F63000C4F202000168B0
:101A100041F010010160006800F010000690069887
:101A2000FFE7FFE70020059043F63000C4F2020014
:101A3000016841F080010160006800F080000590BD
:101A40000598FFE7FFE70020049043F63000C4F25A
:101A50000200016841F001010160006800F001002E
:101A600004900498FFE7182007904FF4881008901E
:101A70000120099041F20000C4F2020007A9FEF71C
:101A800055FD09200190002202921146FEF7C2FF87
:101A90000198FEF7B5FF029A0A2003901146FEF75F
:101AA000B9FF0398FEF7ACFF0CB080BD80B58AB0DB
:101AB00000210091099108910791069105910491E7
:101AC00003910291019140F27000C2F2000040F6D1
:101AD0000042C4F20002026053224260816044F678
:101AE0001F62C26001618161FFF72CFE18B1FFE740
:101AF000FEF7BCFCFFE700200890099040F2700060
:101B0000C2F2000008A9FFF7B5FC18B1FFE7FEF725
:101B1000ADFCFFE760200190002202920392059243
:101B200040F27000C2F2000001A9FFF769FD18B190
:101B3000FFE7FEF79BFCFFE740F27000C2F20000F7
:101B400001A90422FFF75CFD18B1FFE7FEF78EFC48
:101B5000FFE740F27000C2F20000FFF71DFD0AB07F
:101B600080BD0000FFE7FEE7FFE7FEE788B00790D3
:101B700006910592079800F0070004900498C0F1C0
:101B80000700052803D3FFE70420019004E0049830
:101B9000C0F107000190FFE701980390049804301A
:101BA000062803D8FFE70020009003E004980338DC
:101BB0000090FFE70098029006980399012202FA2C
:101BC00001F101390840029B984005999A40013A79
:101BD0001140084308B0704770470000704700008C
:101BE00082B08DED010A9DED010AB2EE041A20EEDD
:101BF000010A9FED081A30EE010ABCEEC00A8DED15
:101C0000000A009840F27001C2F20001096888637E
:101C100002B0704700007A4480B582B0009000980E
:101C20000138B0F1807F03D3FFE70120019019E074
:101C3000009801384EF21401CEF2000108604FF016
:101C4000FF300F2100F050FB4EF21801CEF20001E0
:101C5000002008604EF21002CEF20002072111604F
:101C60000190FFE7019802B080BD000080B5FEF74B
:101C70003FFE80BD80B594B008A83021FEF782FBFE
:101C8000002007900690059004900390FFE7002045
:101C9000029043F64000C4F20200016841F0805116
:101CA0000160006800F0805002900298FFE7FFE7B3
:101CB0000020019047F20000C4F20000016841F4E6
:101CC00080410160006800F4804001900198FFE7C6
:101CD000012008904FF48030099002210E914FF4BA
:101CE00080000F9004201090A8221192129113905E
:101CF00008A8FFF757F818B1FFE7FEF7B7FBFFE7B3
:101D00000F20039002200490002005904FF4A05073
:101D100006904FF48050079003A80521FEF79CFE23
:101D200018B1FFE7FEF7A2FBFFE714B080BD00008B
:101D30004EF68851CEF20001086840F47000086049
:101D40007047000083B002900191029800680090F3
:101D500002980021C4F20101884225D0FFE70298D1
:101D6000B0F1804F20D0FFE7029840F20041C4F26A
:101D70000001884218D0FFE7029840F60001C4F243
:101D80000001884210D0FFE7029840F60041C4F2FB
:101D90000001884208D0FFE7029840F20041C4F2F7
:101DA000010188420AD1FFE7009820F070000090FE
:101DB00001984168009808430090FFE702980021CD
:101DC000C4F20101884255D0FFE70298B0F1804F7C
:101DD00050D0FFE7029840F20041C4F2000188426F
:101DE00048D0FFE7029840F60001C4F200018842A3
:101DF00040D0FFE7029840F60041C4F2000188425B
:101E000038D0FFE7029840F20041C4F20101884255
:101E100030D0FFE7029844F20001C4F20101884289
:101E200028D0FFE7029844F20041C4F20101884241
:101E300020D0FFE7029844F60001C4F20101884275
:101E400018D0FFE7029841F60001C4F20001884271
:101E500010D0FFE7029841F60041C4F20001884229
:101E600008D0FFE7029842F20001C4F20001884264
:101E70000AD1FFE7009820F4407000900198C168F3
:101E8000009808430090FFE7009820F08000019937
:101E90004969084300900098029908600198806899
:101EA0000299C8620198006802998862029800212C
:101EB000C4F20101884208D0FFE7029840F20041D5
:101EC000C4F20101884205D1FFE701980069029937
:101ED0000863FFE702990120486102980069C00782
:101EE00030B1FFE70299086920F001000861FFE7BF
:101EF00003B0704784B0039002910192029800F001
:101F00001F01012088400090009A0399086A9043BD
:101F100008620198029901F01F0100FA01F2039989
:101F2000086A1043086204B07047000085B004904E
:101F300003910498006A01900499086A20F0010056
:101F400008620498406800900498806902900298A2
:101F500020F070000290029820F003000290039895
:101F60000168029808430290019820F00200019055
:101F70000398816801980843019004980021C4F2F5
:101F80000101884208D0FFE7049840F20041C4F202
:101F9000010188420ED1FFE7019820F0080001906E
:101FA0000398C168019808430190019820F004004B
:101FB0000190FFE704980021C4F20101884208D093
:101FC000FFE7049840F20041C4F20101884213D1B6
:101FD000FFE7009820F480700090009820F40070D3
:101FE0000090039841690098084300900398816924
:101FF000009808430090FFE7009804994860029811
:102000000499886103984068049948630198049989
:10201000086205B07047000085B0049003910498F1
:10202000006A01900499086A20F010000862049880
:1020300040680090049880690290029820F4E04083
:102040000290029820F44070029003980168029870
:1020500040EA01200290019820F0200001900398AE
:102060008168019840EA0110019004980021C4F2AF
:102070000101884208D0FFE7049840F20041C4F211
:10208000010188420FD1FFE7019820F08000019004
:102090000398C168019840EA01100190019820F06E
:1020A00040000190FFE704980021C4F2010188423A
:1020B00008D0FFE7049840F20041C4F201018842D1
:1020C00015D1FFE7009820F480600090009820F47C
:1020D0000060009003984169009840EA81000090F8
:1020E00003988169009840EA81000090FFE700981A
:1020F000049948600298049988610398406804999B
:10210000886301980499086205B0704785B004900F
:1021100003910498006A01900499086A20F4807081
:1021200008620498406800900498C0690290029880
:1021300020F070000290029820F0030002900398B3
:102140000168029808430290019820F40070019001
:1021500003988168019840EA0120019004980021C9
:10216000C4F20101884208D0FFE7049840F2004120
:10217000C4F2010188420FD1FFE7019820F400600A
:1021800001900398C168019840EA012001900198EC
:1021900020F480600190FFE704980021C4F201015F
:1021A000884208D0FFE7049840F20041C4F20101E0
:1021B000884215D1FFE7009820F4805000900098E5
:1021C00020F40050009003984169009840EA011003
:1021D000009003988169009840EA01100090FFE7A1
:1021E00000980499486002980499C861039840686F
:1021F0000499C86301980499086205B0704700000B
:1022000085B0049003910498006A01900499086ACB
:1022100020F4805008620498406800900498C069D7
:102220000290029820F4E0400290029820F440705E
:10223000029003980168029840EA012002900198F8
:1022400020F40050019003988168019840EA013021
:10225000019004980021C4F20101884208D0FFE7F0
:10226000049840F20041C4F2010188420BD1FFE71B
:10227000009820F48040009003984169009840EA5B
:1022800081100090FFE70098049948600298049933
:10229000C861039840680499086401980499086229
:1022A00005B07047FFE7FEE781B08DF803009DF9A8
:1022B000030000280ED4FFE79DF9031001F01F0270
:1022C000012090404A094EF20011CEF2000141F87F
:1022D0002200FFE701B070474EF60C50CEF200002E
:1022E0000068C0F30220704782B08DF807000091AB
:1022F0009DF9070000280AD4FFE7009800019DF926
:1023000007104EF20042CEF2000288540BE0009813
:1023100000019DF8071001F00F014EF61452CEF2A5
:1023200000028854FFE702B07047000083B00290BB
:10233000029800F0070000904EF60C51CEF200011A
:102340000868019001984FF6FF0210400190019833
:10235000009A40EA02200022C0F2FA521043019093
:102360000198086003B0704780B584B000200190E8
:102370000390FEF7CBFAFFF77DFCFFF739FBFFF781
:1023800095FB019940F27000C2F200000090FFF747
:1023900047FA00980421FFF743FA9FED160AFFF76A
:1023A0001FFC4FF47A70FEF765F80198ADF80A004B
:1023B000FFE70A20FEF75EF840F20000C2F20000DC
:1023C000007848B9FFE7BDF90A0000EE100AB8EE40
:1023D000C00AFFF705FCFFE740F20000C2F2000070
:1023E0000078012805D1FFE79FED020AFFF7F8FB0F
:1023F000FFE7DEE700000000F1EE100A4FF6FF7184
:10240000C0F2C03120EA010040F04070E1EE100A55
:1024100070470000000000000000010203040607EE
:1024200008090000482400080000002010000000F7
:10243000EC0100085824000810000020B00600003D
:102440000C02000800000000030000000024F4005B
:08245000010000001000000073
:040000050800018965
:00000001FF
